{
  "_format": "hh-sol-artifact-1",
  "contractName": "Lock",
  "sourceName": "contracts/Lock.sol",
  "abi": [
    {
      "inputs": [],
      "stateMutability": "nonpayable",
      "type": "constructor"
    },
    {
      "anonymous": false,
      "inputs": [
        {
          "indexed": true,
          "internalType": "address",
          "name": "owner",
          "type": "address"
        },
        {
          "indexed": true,
          "internalType": "address",
          "name": "approved",
          "type": "address"
        },
        {
          "indexed": true,
          "internalType": "uint256",
          "name": "tokenId",
          "type": "uint256"
        }
      ],
      "name": "Approval",
      "type": "event"
    },
    {
      "anonymous": false,
      "inputs": [
        {
          "indexed": true,
          "internalType": "address",
          "name": "owner",
          "type": "address"
        },
        {
          "indexed": true,
          "internalType": "address",
          "name": "operator",
          "type": "address"
        },
        {
          "indexed": false,
          "internalType": "bool",
          "name": "approved",
          "type": "bool"
        }
      ],
      "name": "ApprovalForAll",
      "type": "event"
    },
    {
      "anonymous": false,
      "inputs": [
        {
          "indexed": true,
          "internalType": "address",
          "name": "previousOwner",
          "type": "address"
        },
        {
          "indexed": true,
          "internalType": "address",
          "name": "newOwner",
          "type": "address"
        }
      ],
      "name": "OwnershipTransferred",
      "type": "event"
    },
    {
      "anonymous": false,
      "inputs": [
        {
          "indexed": true,
          "internalType": "address",
          "name": "from",
          "type": "address"
        },
        {
          "indexed": true,
          "internalType": "address",
          "name": "to",
          "type": "address"
        },
        {
          "indexed": true,
          "internalType": "uint256",
          "name": "tokenId",
          "type": "uint256"
        }
      ],
      "name": "Transfer",
      "type": "event"
    },
    {
      "inputs": [
        {
          "internalType": "address",
          "name": "to",
          "type": "address"
        },
        {
          "internalType": "uint256",
          "name": "tokenId",
          "type": "uint256"
        }
      ],
      "name": "approve",
      "outputs": [],
      "stateMutability": "nonpayable",
      "type": "function"
    },
    {
      "inputs": [
        {
          "internalType": "address",
          "name": "owner",
          "type": "address"
        }
      ],
      "name": "balanceOf",
      "outputs": [
        {
          "internalType": "uint256",
          "name": "",
          "type": "uint256"
        }
      ],
      "stateMutability": "view",
      "type": "function"
    },
    {
      "inputs": [
        {
          "internalType": "uint256",
          "name": "_tokenId",
          "type": "uint256"
        }
      ],
      "name": "buyToken",
      "outputs": [],
      "stateMutability": "payable",
      "type": "function"
    },
    {
      "inputs": [
        {
          "internalType": "uint256",
          "name": "tokenId",
          "type": "uint256"
        }
      ],
      "name": "getApproved",
      "outputs": [
        {
          "internalType": "address",
          "name": "",
          "type": "address"
        }
      ],
      "stateMutability": "view",
      "type": "function"
    },
    {
      "inputs": [
        {
          "internalType": "address",
          "name": "owner",
          "type": "address"
        },
        {
          "internalType": "address",
          "name": "operator",
          "type": "address"
        }
      ],
      "name": "isApprovedForAll",
      "outputs": [
        {
          "internalType": "bool",
          "name": "",
          "type": "bool"
        }
      ],
      "stateMutability": "view",
      "type": "function"
    },
    {
      "inputs": [
        {
          "internalType": "uint256",
          "name": "",
          "type": "uint256"
        }
      ],
      "name": "marketDisplay",
      "outputs": [
        {
          "internalType": "uint256",
          "name": "tokenId",
          "type": "uint256"
        },
        {
          "internalType": "address payable",
          "name": "seller",
          "type": "address"
        },
        {
          "internalType": "uint256",
          "name": "price",
          "type": "uint256"
        },
        {
          "internalType": "string",
          "name": "URL",
          "type": "string"
        },
        {
          "internalType": "uint256",
          "name": "state",
          "type": "uint256"
        },
        {
          "internalType": "uint256",
          "name": "extPay",
          "type": "uint256"
        }
      ],
      "stateMutability": "view",
      "type": "function"
    },
    {
      "inputs": [
        {
          "internalType": "uint256",
          "name": "",
          "type": "uint256"
        }
      ],
      "name": "marketItems",
      "outputs": [
        {
          "internalType": "uint256",
          "name": "",
          "type": "uint256"
        }
      ],
      "stateMutability": "view",
      "type": "function"
    },
    {
      "inputs": [
        {
          "internalType": "string",
          "name": "uri",
          "type": "string"
        },
        {
          "internalType": "uint256",
          "name": "_price",
          "type": "uint256"
        }
      ],
      "name": "mintNFT",
      "outputs": [
        {
          "internalType": "uint256",
          "name": "",
          "type": "uint256"
        }
      ],
      "stateMutability": "payable",
      "type": "function"
    },
    {
      "inputs": [],
      "name": "name",
      "outputs": [
        {
          "internalType": "string",
          "name": "",
          "type": "string"
        }
      ],
      "stateMutability": "view",
      "type": "function"
    },
    {
      "inputs": [],
      "name": "owner",
      "outputs": [
        {
          "internalType": "address",
          "name": "",
          "type": "address"
        }
      ],
      "stateMutability": "view",
      "type": "function"
    },
    {
      "inputs": [
        {
          "internalType": "uint256",
          "name": "tokenId",
          "type": "uint256"
        }
      ],
      "name": "ownerOf",
      "outputs": [
        {
          "internalType": "address",
          "name": "",
          "type": "address"
        }
      ],
      "stateMutability": "view",
      "type": "function"
    },
    {
      "inputs": [],
      "name": "renounceOwnership",
      "outputs": [],
      "stateMutability": "nonpayable",
      "type": "function"
    },
    {
      "inputs": [
        {
          "internalType": "uint256",
          "name": "_price",
          "type": "uint256"
        },
        {
          "internalType": "uint256",
          "name": "_tokenId",
          "type": "uint256"
        }
      ],
      "name": "resellToken",
      "outputs": [],
      "stateMutability": "nonpayable",
      "type": "function"
    },
    {
      "inputs": [],
      "name": "royaltyFee",
      "outputs": [
        {
          "internalType": "uint256",
          "name": "",
          "type": "uint256"
        }
      ],
      "stateMutability": "view",
      "type": "function"
    },
    {
      "inputs": [
        {
          "internalType": "address",
          "name": "from",
          "type": "address"
        },
        {
          "internalType": "address",
          "name": "to",
          "type": "address"
        },
        {
          "internalType": "uint256",
          "name": "tokenId",
          "type": "uint256"
        }
      ],
      "name": "safeTransferFrom",
      "outputs": [],
      "stateMutability": "nonpayable",
      "type": "function"
    },
    {
      "inputs": [
        {
          "internalType": "address",
          "name": "from",
          "type": "address"
        },
        {
          "internalType": "address",
          "name": "to",
          "type": "address"
        },
        {
          "internalType": "uint256",
          "name": "tokenId",
          "type": "uint256"
        },
        {
          "internalType": "bytes",
          "name": "data",
          "type": "bytes"
        }
      ],
      "name": "safeTransferFrom",
      "outputs": [],
      "stateMutability": "nonpayable",
      "type": "function"
    },
    {
      "inputs": [],
      "name": "seeSoldTokens",
      "outputs": [
        {
          "internalType": "uint256[]",
          "name": "",
          "type": "uint256[]"
        }
      ],
      "stateMutability": "view",
      "type": "function"
    },
    {
      "inputs": [],
      "name": "seeTokens",
      "outputs": [
        {
          "internalType": "uint256[]",
          "name": "",
          "type": "uint256[]"
        }
      ],
      "stateMutability": "view",
      "type": "function"
    },
    {
      "inputs": [
        {
          "internalType": "address",
          "name": "operator",
          "type": "address"
        },
        {
          "internalType": "bool",
          "name": "approved",
          "type": "bool"
        }
      ],
      "name": "setApprovalForAll",
      "outputs": [],
      "stateMutability": "nonpayable",
      "type": "function"
    },
    {
      "inputs": [
        {
          "internalType": "uint256",
          "name": "",
          "type": "uint256"
        }
      ],
      "name": "soldDisplay",
      "outputs": [
        {
          "internalType": "uint256",
          "name": "tokenId",
          "type": "uint256"
        },
        {
          "internalType": "address payable",
          "name": "seller",
          "type": "address"
        },
        {
          "internalType": "uint256",
          "name": "price",
          "type": "uint256"
        },
        {
          "internalType": "string",
          "name": "URL",
          "type": "string"
        },
        {
          "internalType": "uint256",
          "name": "state",
          "type": "uint256"
        }
      ],
      "stateMutability": "view",
      "type": "function"
    },
    {
      "inputs": [
        {
          "internalType": "uint256",
          "name": "",
          "type": "uint256"
        }
      ],
      "name": "soldItems",
      "outputs": [
        {
          "internalType": "uint256",
          "name": "",
          "type": "uint256"
        }
      ],
      "stateMutability": "view",
      "type": "function"
    },
    {
      "inputs": [
        {
          "internalType": "bytes4",
          "name": "interfaceId",
          "type": "bytes4"
        }
      ],
      "name": "supportsInterface",
      "outputs": [
        {
          "internalType": "bool",
          "name": "",
          "type": "bool"
        }
      ],
      "stateMutability": "view",
      "type": "function"
    },
    {
      "inputs": [],
      "name": "symbol",
      "outputs": [
        {
          "internalType": "string",
          "name": "",
          "type": "string"
        }
      ],
      "stateMutability": "view",
      "type": "function"
    },
    {
      "inputs": [],
      "name": "tokenId",
      "outputs": [
        {
          "internalType": "uint256",
          "name": "",
          "type": "uint256"
        }
      ],
      "stateMutability": "view",
      "type": "function"
    },
    {
      "inputs": [
        {
          "internalType": "uint256",
          "name": "tokenId",
          "type": "uint256"
        }
      ],
      "name": "tokenURI",
      "outputs": [
        {
          "internalType": "string",
          "name": "",
          "type": "string"
        }
      ],
      "stateMutability": "view",
      "type": "function"
    },
    {
      "inputs": [
        {
          "internalType": "address",
          "name": "from",
          "type": "address"
        },
        {
          "internalType": "address",
          "name": "to",
          "type": "address"
        },
        {
          "internalType": "uint256",
          "name": "tokenId",
          "type": "uint256"
        }
      ],
      "name": "transferFrom",
      "outputs": [],
      "stateMutability": "nonpayable",
      "type": "function"
    },
    {
      "inputs": [
        {
          "internalType": "address",
          "name": "newOwner",
          "type": "address"
        }
      ],
      "name": "transferOwnership",
      "outputs": [],
      "stateMutability": "nonpayable",
      "type": "function"
    }
  ],
  "bytecode": "0x60806040523480156200001157600080fd5b506040518060400160405280600681526020017f44417070466900000000000000000000000000000000000000000000000000008152506040518060400160405280600681526020017f4d414e54494300000000000000000000000000000000000000000000000000008152506200009e62000092620000d360201b60201c565b620000db60201b60201c565b8160019081620000af919062000419565b508060029081620000c1919062000419565b5050506106d260088190555062000500565b600033905090565b60008060009054906101000a900473ffffffffffffffffffffffffffffffffffffffff169050816000806101000a81548173ffffffffffffffffffffffffffffffffffffffff021916908373ffffffffffffffffffffffffffffffffffffffff1602179055508173ffffffffffffffffffffffffffffffffffffffff168173ffffffffffffffffffffffffffffffffffffffff167f8be0079c531659141344cd1fd0a4f28419497f9722a3daafe3b4186f6b6457e060405160405180910390a35050565b600081519050919050565b7f4e487b7100000000000000000000000000000000000000000000000000000000600052604160045260246000fd5b7f4e487b7100000000000000000000000000000000000000000000000000000000600052602260045260246000fd5b600060028204905060018216806200022157607f821691505b602082108103620002375762000236620001d9565b5b50919050565b60008190508160005260206000209050919050565b60006020601f8301049050919050565b600082821b905092915050565b600060088302620002a17fffffffffffffffffffffffffffffffffffffffffffffffffffffffffffffffff8262000262565b620002ad868362000262565b95508019841693508086168417925050509392505050565b6000819050919050565b6000819050919050565b6000620002fa620002f4620002ee84620002c5565b620002cf565b620002c5565b9050919050565b6000819050919050565b6200031683620002d9565b6200032e620003258262000301565b8484546200026f565b825550505050565b600090565b6200034562000336565b620003528184846200030b565b505050565b5b818110156200037a576200036e6000826200033b565b60018101905062000358565b5050565b601f821115620003c95762000393816200023d565b6200039e8462000252565b81016020851015620003ae578190505b620003c6620003bd8562000252565b83018262000357565b50505b505050565b600082821c905092915050565b6000620003ee60001984600802620003ce565b1980831691505092915050565b6000620004098383620003db565b9150826002028217905092915050565b62000424826200019f565b67ffffffffffffffff81111562000440576200043f620001aa565b5b6200044c825462000208565b620004598282856200037e565b600060209050601f8311600181146200049157600084156200047c578287015190505b620004888582620003fb565b865550620004f8565b601f198416620004a1866200023d565b60005b82811015620004cb57848901518255600182019150602085019450602081019050620004a4565b86831015620004eb5784890151620004e7601f891682620003db565b8355505b6001600288020188555050505b505050505050565b613f7780620005106000396000f3fe60806040526004361061019c5760003560e01c80636352211e116100ec578063b8997a971161008a578063e219fc7511610064578063e219fc7514610601578063e985e9c51461062a578063f2fde38b14610667578063fd829d90146106905761019c565b8063b8997a971461055c578063c6ad81a614610587578063c87b56dd146105c45761019c565b80638da5cb5b116100c65780638da5cb5b146104b457806395d89b41146104df578063a22cb4651461050a578063b88d4fde146105335761019c565b80636352211e1461042357806370a0823114610460578063715018a61461049d5761019c565b8063190de8681161015957806342842e0e1161013357806342842e0e146103625780634317f5481461038b57806351f28e14146103b65780635afa3a72146103f35761019c565b8063190de868146102dc57806323b872dd1461031d5780632d296bf1146103465761019c565b806301ffc9a7146101a157806306fdde03146101de578063081812fc14610209578063095ea7b3146102465780630e23d5121461026f57806317d70f7c146102b1575b600080fd5b3480156101ad57600080fd5b506101c860048036038101906101c3919061284a565b6106bb565b6040516101d59190612892565b60405180910390f35b3480156101ea57600080fd5b506101f361079d565b604051610200919061293d565b60405180910390f35b34801561021557600080fd5b50610230600480360381019061022b9190612995565b61082f565b60405161023d9190612a03565b60405180910390f35b34801561025257600080fd5b5061026d60048036038101906102689190612a4a565b610875565b005b34801561027b57600080fd5b5061029660048036038101906102919190612995565b61098c565b6040516102a896959493929190612aba565b60405180910390f35b3480156102bd57600080fd5b506102c6610a70565b6040516102d39190612b22565b60405180910390f35b3480156102e857600080fd5b5061030360048036038101906102fe9190612995565b610a76565b604051610314959493929190612b3d565b60405180910390f35b34801561032957600080fd5b50610344600480360381019061033f9190612b97565b610b54565b005b610360600480360381019061035b9190612995565b610bb4565b005b34801561036e57600080fd5b5061038960048036038101906103849190612b97565b610e99565b005b34801561039757600080fd5b506103a0610eb9565b6040516103ad9190612ca8565b60405180910390f35b3480156103c257600080fd5b506103dd60048036038101906103d89190612995565b610f11565b6040516103ea9190612b22565b60405180910390f35b61040d60048036038101906104089190612dff565b610f35565b60405161041a9190612b22565b60405180910390f35b34801561042f57600080fd5b5061044a60048036038101906104459190612995565b611094565b6040516104579190612a03565b60405180910390f35b34801561046c57600080fd5b5061048760048036038101906104829190612e5b565b61111a565b6040516104949190612b22565b60405180910390f35b3480156104a957600080fd5b506104b26111d1565b005b3480156104c057600080fd5b506104c96111e5565b6040516104d69190612a03565b60405180910390f35b3480156104eb57600080fd5b506104f461120e565b604051610501919061293d565b60405180910390f35b34801561051657600080fd5b50610531600480360381019061052c9190612eb4565b6112a0565b005b34801561053f57600080fd5b5061055a60048036038101906105559190612f95565b6112b6565b005b34801561056857600080fd5b50610571611318565b60405161057e9190612b22565b60405180910390f35b34801561059357600080fd5b506105ae60048036038101906105a99190612995565b61131e565b6040516105bb9190612b22565b60405180910390f35b3480156105d057600080fd5b506105eb60048036038101906105e69190612995565b611342565b6040516105f8919061293d565b60405180910390f35b34801561060d57600080fd5b5061062860048036038101906106239190613018565b611454565b005b34801561063657600080fd5b50610651600480360381019061064c9190613058565b6115e3565b60405161065e9190612892565b60405180910390f35b34801561067357600080fd5b5061068e60048036038101906106899190612e5b565b611677565b005b34801561069c57600080fd5b506106a56116fa565b6040516106b29190612ca8565b60405180910390f35b60007f80ac58cd000000000000000000000000000000000000000000000000000000007bffffffffffffffffffffffffffffffffffffffffffffffffffffffff1916827bffffffffffffffffffffffffffffffffffffffffffffffffffffffff1916148061078657507f5b5e139f000000000000000000000000000000000000000000000000000000007bffffffffffffffffffffffffffffffffffffffffffffffffffffffff1916827bffffffffffffffffffffffffffffffffffffffffffffffffffffffff1916145b80610796575061079582611752565b5b9050919050565b6060600180546107ac906130c7565b80601f01602080910402602001604051908101604052809291908181526020018280546107d8906130c7565b80156108255780601f106107fa57610100808354040283529160200191610825565b820191906000526020600020905b81548152906001019060200180831161080857829003601f168201915b5050505050905090565b600061083a826117bc565b6005600083815260200190815260200160002060009054906101000a900473ffffffffffffffffffffffffffffffffffffffff169050919050565b600061088082611094565b90508073ffffffffffffffffffffffffffffffffffffffff168373ffffffffffffffffffffffffffffffffffffffff16036108f0576040517f08c379a00000000000000000000000000000000000000000000000000000000081526004016108e79061316a565b60405180910390fd5b8073ffffffffffffffffffffffffffffffffffffffff1661090f611807565b73ffffffffffffffffffffffffffffffffffffffff16148061093e575061093d81610938611807565b6115e3565b5b61097d576040517f08c379a0000000000000000000000000000000000000000000000000000000008152600401610974906131fc565b60405180910390fd5b610987838361180f565b505050565b600b6020528060005260406000206000915090508060000154908060010160009054906101000a900473ffffffffffffffffffffffffffffffffffffffff16908060020154908060030180546109e1906130c7565b80601f0160208091040260200160405190810160405280929190818152602001828054610a0d906130c7565b8015610a5a5780601f10610a2f57610100808354040283529160200191610a5a565b820191906000526020600020905b815481529060010190602001808311610a3d57829003601f168201915b5050505050908060040154908060050154905086565b60085481565b600d6020528060005260406000206000915090508060000154908060010160009054906101000a900473ffffffffffffffffffffffffffffffffffffffff1690806002015490806003018054610acb906130c7565b80601f0160208091040260200160405190810160405280929190818152602001828054610af7906130c7565b8015610b445780601f10610b1957610100808354040283529160200191610b44565b820191906000526020600020905b815481529060010190602001808311610b2757829003601f168201915b5050505050908060040154905085565b610b65610b5f611807565b826118c8565b610ba4576040517f08c379a0000000000000000000000000000000000000000000000000000000008152600401610b9b9061328e565b60405180910390fd5b610baf83838361195d565b505050565b6000600b6000838152602001908152602001600020600201549050803414610c11576040517f08c379a0000000000000000000000000000000000000000000000000000000008152600401610c0890613320565b60405180910390fd5b600b600083815260200190815260200160002060010160009054906101000a900473ffffffffffffffffffffffffffffffffffffffff1673ffffffffffffffffffffffffffffffffffffffff166108fc829081150290604051600060405180830381858888f19350505050158015610c8d573d6000803e3d6000fd5b5033600b600084815260200190815260200160002060010160006101000a81548173ffffffffffffffffffffffffffffffffffffffff021916908373ffffffffffffffffffffffffffffffffffffffff1602179055506000600b600084815260200190815260200160002060040181905550600c8290806001815401808255809150506001900390600052602060002001600090919091909150556040518060a001604052808381526020013373ffffffffffffffffffffffffffffffffffffffff168152602001828152602001600b60008581526020019081526020016000206003018054610d7c906130c7565b80601f0160208091040260200160405190810160405280929190818152602001828054610da8906130c7565b8015610df55780601f10610dca57610100808354040283529160200191610df5565b820191906000526020600020905b815481529060010190602001808311610dd857829003601f168201915b505050505081526020016001815250600d60008481526020019081526020016000206000820151816000015560208201518160010160006101000a81548173ffffffffffffffffffffffffffffffffffffffff021916908373ffffffffffffffffffffffffffffffffffffffff160217905550604082015181600201556060820151816003019081610e8791906134ec565b50608082015181600401559050505050565b610eb4838383604051806020016040528060008152506112b6565b505050565b6060600a805480602002602001604051908101604052809291908181526020018280548015610f0757602002820191906000526020600020905b815481526020019060010190808311610ef3575b5050505050905090565b600a8181548110610f2157600080fd5b906000526020600020016000915090505481565b6000806001600854610f4791906135ed565b9050610f533382611c56565b610f5d8185611e73565b600a81908060018154018082558091505060019003906000526020600020016000909190919091505560006064600385610f979190613621565b610fa19190613692565b90506040518060c001604052808381526020013373ffffffffffffffffffffffffffffffffffffffff1681526020018581526020018681526020016001815260200182815250600b60008481526020019081526020016000206000820151816000015560208201518160010160006101000a81548173ffffffffffffffffffffffffffffffffffffffff021916908373ffffffffffffffffffffffffffffffffffffffff16021790555060408201518160020155606082015181600301908161106a91906134ec565b506080820151816004015560a0820151816005015590505081600881905550819250505092915050565b6000806110a083611ee0565b9050600073ffffffffffffffffffffffffffffffffffffffff168173ffffffffffffffffffffffffffffffffffffffff1603611111576040517f08c379a00000000000000000000000000000000000000000000000000000000081526004016111089061370f565b60405180910390fd5b80915050919050565b60008073ffffffffffffffffffffffffffffffffffffffff168273ffffffffffffffffffffffffffffffffffffffff160361118a576040517f08c379a0000000000000000000000000000000000000000000000000000000008152600401611181906137a1565b60405180910390fd5b600460008373ffffffffffffffffffffffffffffffffffffffff1673ffffffffffffffffffffffffffffffffffffffff168152602001908152602001600020549050919050565b6111d9611f1d565b6111e36000611f9b565b565b60008060009054906101000a900473ffffffffffffffffffffffffffffffffffffffff16905090565b60606002805461121d906130c7565b80601f0160208091040260200160405190810160405280929190818152602001828054611249906130c7565b80156112965780601f1061126b57610100808354040283529160200191611296565b820191906000526020600020905b81548152906001019060200180831161127957829003601f168201915b5050505050905090565b6112b26112ab611807565b838361205f565b5050565b6112c76112c1611807565b836118c8565b611306576040517f08c379a00000000000000000000000000000000000000000000000000000000081526004016112fd9061328e565b60405180910390fd5b611312848484846121cb565b50505050565b60095481565b600c818154811061132e57600080fd5b906000526020600020016000915090505481565b606061134d826117bc565b600060076000848152602001908152602001600020805461136d906130c7565b80601f0160208091040260200160405190810160405280929190818152602001828054611399906130c7565b80156113e65780601f106113bb576101008083540402835291602001916113e6565b820191906000526020600020905b8154815290600101906020018083116113c957829003601f168201915b5050505050905060006113f7612227565b9050600081510361140c57819250505061144f565b6000825111156114415780826040516020016114299291906137fd565b6040516020818303038152906040529250505061144f565b61144a8461223e565b925050505b919050565b600d600082815260200190815260200160002060010160009054906101000a900473ffffffffffffffffffffffffffffffffffffffff1673ffffffffffffffffffffffffffffffffffffffff163373ffffffffffffffffffffffffffffffffffffffff16146114f8576040517f08c379a00000000000000000000000000000000000000000000000000000000081526004016114ef9061386d565b60405180910390fd5b600060646003846115099190613621565b6115139190613692565b90506000600d60008481526020019081526020016000209050838160020181905550600b600084815260200190815260200160002060030181600301908161155b91906138b8565b50600081600401819055506000600b60008581526020019081526020016000209050338160010160006101000a81548173ffffffffffffffffffffffffffffffffffffffff021916908373ffffffffffffffffffffffffffffffffffffffff160217905550848160020181905550828160050181905550600181600401819055505050505050565b6000600660008473ffffffffffffffffffffffffffffffffffffffff1673ffffffffffffffffffffffffffffffffffffffff16815260200190815260200160002060008373ffffffffffffffffffffffffffffffffffffffff1673ffffffffffffffffffffffffffffffffffffffff16815260200190815260200160002060009054906101000a900460ff16905092915050565b61167f611f1d565b600073ffffffffffffffffffffffffffffffffffffffff168173ffffffffffffffffffffffffffffffffffffffff16036116ee576040517f08c379a00000000000000000000000000000000000000000000000000000000081526004016116e590613a12565b60405180910390fd5b6116f781611f9b565b50565b6060600c80548060200260200160405190810160405280929190818152602001828054801561174857602002820191906000526020600020905b815481526020019060010190808311611734575b5050505050905090565b60007f01ffc9a7000000000000000000000000000000000000000000000000000000007bffffffffffffffffffffffffffffffffffffffffffffffffffffffff1916827bffffffffffffffffffffffffffffffffffffffffffffffffffffffff1916149050919050565b6117c5816122a6565b611804576040517f08c379a00000000000000000000000000000000000000000000000000000000081526004016117fb9061370f565b60405180910390fd5b50565b600033905090565b816005600083815260200190815260200160002060006101000a81548173ffffffffffffffffffffffffffffffffffffffff021916908373ffffffffffffffffffffffffffffffffffffffff160217905550808273ffffffffffffffffffffffffffffffffffffffff1661188283611094565b73ffffffffffffffffffffffffffffffffffffffff167f8c5be1e5ebec7d5bd14f71427d1e84f3dd0314c0f7b2291e5b200ac8c7c3b92560405160405180910390a45050565b6000806118d483611094565b90508073ffffffffffffffffffffffffffffffffffffffff168473ffffffffffffffffffffffffffffffffffffffff161480611916575061191581856115e3565b5b8061195457508373ffffffffffffffffffffffffffffffffffffffff1661193c8461082f565b73ffffffffffffffffffffffffffffffffffffffff16145b91505092915050565b8273ffffffffffffffffffffffffffffffffffffffff1661197d82611094565b73ffffffffffffffffffffffffffffffffffffffff16146119d3576040517f08c379a00000000000000000000000000000000000000000000000000000000081526004016119ca90613aa4565b60405180910390fd5b600073ffffffffffffffffffffffffffffffffffffffff168273ffffffffffffffffffffffffffffffffffffffff1603611a42576040517f08c379a0000000000000000000000000000000000000000000000000000000008152600401611a3990613b36565b60405180910390fd5b611a4f83838360016122e7565b8273ffffffffffffffffffffffffffffffffffffffff16611a6f82611094565b73ffffffffffffffffffffffffffffffffffffffff1614611ac5576040517f08c379a0000000000000000000000000000000000000000000000000000000008152600401611abc90613aa4565b60405180910390fd5b6005600082815260200190815260200160002060006101000a81549073ffffffffffffffffffffffffffffffffffffffff02191690556001600460008573ffffffffffffffffffffffffffffffffffffffff1673ffffffffffffffffffffffffffffffffffffffff168152602001908152602001600020600082825403925050819055506001600460008473ffffffffffffffffffffffffffffffffffffffff1673ffffffffffffffffffffffffffffffffffffffff16815260200190815260200160002060008282540192505081905550816003600083815260200190815260200160002060006101000a81548173ffffffffffffffffffffffffffffffffffffffff021916908373ffffffffffffffffffffffffffffffffffffffff160217905550808273ffffffffffffffffffffffffffffffffffffffff168473ffffffffffffffffffffffffffffffffffffffff167fddf252ad1be2c89b69c2b068fc378daa952ba7f163c4a11628f55a4df523b3ef60405160405180910390a4611c51838383600161240d565b505050565b600073ffffffffffffffffffffffffffffffffffffffff168273ffffffffffffffffffffffffffffffffffffffff1603611cc5576040517f08c379a0000000000000000000000000000000000000000000000000000000008152600401611cbc90613ba2565b60405180910390fd5b611cce816122a6565b15611d0e576040517f08c379a0000000000000000000000000000000000000000000000000000000008152600401611d0590613c0e565b60405180910390fd5b611d1c6000838360016122e7565b611d25816122a6565b15611d65576040517f08c379a0000000000000000000000000000000000000000000000000000000008152600401611d5c90613c0e565b60405180910390fd5b6001600460008473ffffffffffffffffffffffffffffffffffffffff1673ffffffffffffffffffffffffffffffffffffffff16815260200190815260200160002060008282540192505081905550816003600083815260200190815260200160002060006101000a81548173ffffffffffffffffffffffffffffffffffffffff021916908373ffffffffffffffffffffffffffffffffffffffff160217905550808273ffffffffffffffffffffffffffffffffffffffff16600073ffffffffffffffffffffffffffffffffffffffff167fddf252ad1be2c89b69c2b068fc378daa952ba7f163c4a11628f55a4df523b3ef60405160405180910390a4611e6f60008383600161240d565b5050565b611e7c826122a6565b611ebb576040517f08c379a0000000000000000000000000000000000000000000000000000000008152600401611eb290613ca0565b60405180910390fd5b80600760008481526020019081526020016000209081611edb91906134ec565b505050565b60006003600083815260200190815260200160002060009054906101000a900473ffffffffffffffffffffffffffffffffffffffff169050919050565b611f25611807565b73ffffffffffffffffffffffffffffffffffffffff16611f436111e5565b73ffffffffffffffffffffffffffffffffffffffff1614611f99576040517f08c379a0000000000000000000000000000000000000000000000000000000008152600401611f9090613d0c565b60405180910390fd5b565b60008060009054906101000a900473ffffffffffffffffffffffffffffffffffffffff169050816000806101000a81548173ffffffffffffffffffffffffffffffffffffffff021916908373ffffffffffffffffffffffffffffffffffffffff1602179055508173ffffffffffffffffffffffffffffffffffffffff168173ffffffffffffffffffffffffffffffffffffffff167f8be0079c531659141344cd1fd0a4f28419497f9722a3daafe3b4186f6b6457e060405160405180910390a35050565b8173ffffffffffffffffffffffffffffffffffffffff168373ffffffffffffffffffffffffffffffffffffffff16036120cd576040517f08c379a00000000000000000000000000000000000000000000000000000000081526004016120c490613d78565b60405180910390fd5b80600660008573ffffffffffffffffffffffffffffffffffffffff1673ffffffffffffffffffffffffffffffffffffffff16815260200190815260200160002060008473ffffffffffffffffffffffffffffffffffffffff1673ffffffffffffffffffffffffffffffffffffffff16815260200190815260200160002060006101000a81548160ff0219169083151502179055508173ffffffffffffffffffffffffffffffffffffffff168373ffffffffffffffffffffffffffffffffffffffff167f17307eab39ab6107e8899845ad3d59bd9653f200f220920489ca2b5937696c31836040516121be9190612892565b60405180910390a3505050565b6121d684848461195d565b6121e284848484612413565b612221576040517f08c379a000000000000000000000000000000000000000000000000000000000815260040161221890613e0a565b60405180910390fd5b50505050565b606060405180602001604052806000815250905090565b6060612249826117bc565b6000612253612227565b90506000815111612273576040518060200160405280600081525061229e565b8061227d8461259a565b60405160200161228e9291906137fd565b6040516020818303038152906040525b915050919050565b60008073ffffffffffffffffffffffffffffffffffffffff166122c883611ee0565b73ffffffffffffffffffffffffffffffffffffffff1614159050919050565b600181111561240757600073ffffffffffffffffffffffffffffffffffffffff168473ffffffffffffffffffffffffffffffffffffffff161461237b5780600460008673ffffffffffffffffffffffffffffffffffffffff1673ffffffffffffffffffffffffffffffffffffffff16815260200190815260200160002060008282546123739190613e2a565b925050819055505b600073ffffffffffffffffffffffffffffffffffffffff168373ffffffffffffffffffffffffffffffffffffffff16146124065780600460008573ffffffffffffffffffffffffffffffffffffffff1673ffffffffffffffffffffffffffffffffffffffff16815260200190815260200160002060008282546123fe91906135ed565b925050819055505b5b50505050565b50505050565b60006124348473ffffffffffffffffffffffffffffffffffffffff16612668565b1561258d578373ffffffffffffffffffffffffffffffffffffffff1663150b7a0261245d611807565b8786866040518563ffffffff1660e01b815260040161247f9493929190613eb3565b6020604051808303816000875af19250505080156124bb57506040513d601f19601f820116820180604052508101906124b89190613f14565b60015b61253d573d80600081146124eb576040519150601f19603f3d011682016040523d82523d6000602084013e6124f0565b606091505b506000815103612535576040517f08c379a000000000000000000000000000000000000000000000000000000000815260040161252c90613e0a565b60405180910390fd5b805181602001fd5b63150b7a0260e01b7bffffffffffffffffffffffffffffffffffffffffffffffffffffffff1916817bffffffffffffffffffffffffffffffffffffffffffffffffffffffff191614915050612592565b600190505b949350505050565b6060600060016125a98461268b565b01905060008167ffffffffffffffff8111156125c8576125c7612cd4565b5b6040519080825280601f01601f1916602001820160405280156125fa5781602001600182028036833780820191505090505b509050600082602001820190505b60011561265d578080600190039150507f3031323334353637383961626364656600000000000000000000000000000000600a86061a8153600a858161265157612650613663565b5b04945060008503612608575b819350505050919050565b6000808273ffffffffffffffffffffffffffffffffffffffff163b119050919050565b600080600090507a184f03e93ff9f4daa797ed6e38ed64bf6a1f01000000000000000083106126e9577a184f03e93ff9f4daa797ed6e38ed64bf6a1f01000000000000000083816126df576126de613663565b5b0492506040810190505b6d04ee2d6d415b85acef81000000008310612726576d04ee2d6d415b85acef8100000000838161271c5761271b613663565b5b0492506020810190505b662386f26fc10000831061275557662386f26fc10000838161274b5761274a613663565b5b0492506010810190505b6305f5e100831061277e576305f5e100838161277457612773613663565b5b0492506008810190505b61271083106127a357612710838161279957612798613663565b5b0492506004810190505b606483106127c657606483816127bc576127bb613663565b5b0492506002810190505b600a83106127d5576001810190505b80915050919050565b6000604051905090565b600080fd5b600080fd5b60007fffffffff0000000000000000000000000000000000000000000000000000000082169050919050565b612827816127f2565b811461283257600080fd5b50565b6000813590506128448161281e565b92915050565b6000602082840312156128605761285f6127e8565b5b600061286e84828501612835565b91505092915050565b60008115159050919050565b61288c81612877565b82525050565b60006020820190506128a76000830184612883565b92915050565b600081519050919050565b600082825260208201905092915050565b60005b838110156128e75780820151818401526020810190506128cc565b60008484015250505050565b6000601f19601f8301169050919050565b600061290f826128ad565b61291981856128b8565b93506129298185602086016128c9565b612932816128f3565b840191505092915050565b600060208201905081810360008301526129578184612904565b905092915050565b6000819050919050565b6129728161295f565b811461297d57600080fd5b50565b60008135905061298f81612969565b92915050565b6000602082840312156129ab576129aa6127e8565b5b60006129b984828501612980565b91505092915050565b600073ffffffffffffffffffffffffffffffffffffffff82169050919050565b60006129ed826129c2565b9050919050565b6129fd816129e2565b82525050565b6000602082019050612a1860008301846129f4565b92915050565b612a27816129e2565b8114612a3257600080fd5b50565b600081359050612a4481612a1e565b92915050565b60008060408385031215612a6157612a606127e8565b5b6000612a6f85828601612a35565b9250506020612a8085828601612980565b9150509250929050565b612a938161295f565b82525050565b6000612aa4826129c2565b9050919050565b612ab481612a99565b82525050565b600060c082019050612acf6000830189612a8a565b612adc6020830188612aab565b612ae96040830187612a8a565b8181036060830152612afb8186612904565b9050612b0a6080830185612a8a565b612b1760a0830184612a8a565b979650505050505050565b6000602082019050612b376000830184612a8a565b92915050565b600060a082019050612b526000830188612a8a565b612b5f6020830187612aab565b612b6c6040830186612a8a565b8181036060830152612b7e8185612904565b9050612b8d6080830184612a8a565b9695505050505050565b600080600060608486031215612bb057612baf6127e8565b5b6000612bbe86828701612a35565b9350506020612bcf86828701612a35565b9250506040612be086828701612980565b9150509250925092565b600081519050919050565b600082825260208201905092915050565b6000819050602082019050919050565b612c1f8161295f565b82525050565b6000612c318383612c16565b60208301905092915050565b6000602082019050919050565b6000612c5582612bea565b612c5f8185612bf5565b9350612c6a83612c06565b8060005b83811015612c9b578151612c828882612c25565b9750612c8d83612c3d565b925050600181019050612c6e565b5085935050505092915050565b60006020820190508181036000830152612cc28184612c4a565b905092915050565b600080fd5b600080fd5b7f4e487b7100000000000000000000000000000000000000000000000000000000600052604160045260246000fd5b612d0c826128f3565b810181811067ffffffffffffffff82111715612d2b57612d2a612cd4565b5b80604052505050565b6000612d3e6127de565b9050612d4a8282612d03565b919050565b600067ffffffffffffffff821115612d6a57612d69612cd4565b5b612d73826128f3565b9050602081019050919050565b82818337600083830152505050565b6000612da2612d9d84612d4f565b612d34565b905082815260208101848484011115612dbe57612dbd612ccf565b5b612dc9848285612d80565b509392505050565b600082601f830112612de657612de5612cca565b5b8135612df6848260208601612d8f565b91505092915050565b60008060408385031215612e1657612e156127e8565b5b600083013567ffffffffffffffff811115612e3457612e336127ed565b5b612e4085828601612dd1565b9250506020612e5185828601612980565b9150509250929050565b600060208284031215612e7157612e706127e8565b5b6000612e7f84828501612a35565b91505092915050565b612e9181612877565b8114612e9c57600080fd5b50565b600081359050612eae81612e88565b92915050565b60008060408385031215612ecb57612eca6127e8565b5b6000612ed985828601612a35565b9250506020612eea85828601612e9f565b9150509250929050565b600067ffffffffffffffff821115612f0f57612f0e612cd4565b5b612f18826128f3565b9050602081019050919050565b6000612f38612f3384612ef4565b612d34565b905082815260208101848484011115612f5457612f53612ccf565b5b612f5f848285612d80565b509392505050565b600082601f830112612f7c57612f7b612cca565b5b8135612f8c848260208601612f25565b91505092915050565b60008060008060808587031215612faf57612fae6127e8565b5b6000612fbd87828801612a35565b9450506020612fce87828801612a35565b9350506040612fdf87828801612980565b925050606085013567ffffffffffffffff81111561300057612fff6127ed565b5b61300c87828801612f67565b91505092959194509250565b6000806040838503121561302f5761302e6127e8565b5b600061303d85828601612980565b925050602061304e85828601612980565b9150509250929050565b6000806040838503121561306f5761306e6127e8565b5b600061307d85828601612a35565b925050602061308e85828601612a35565b9150509250929050565b7f4e487b7100000000000000000000000000000000000000000000000000000000600052602260045260246000fd5b600060028204905060018216806130df57607f821691505b6020821081036130f2576130f1613098565b5b50919050565b7f4552433732313a20617070726f76616c20746f2063757272656e74206f776e6560008201527f7200000000000000000000000000000000000000000000000000000000000000602082015250565b60006131546021836128b8565b915061315f826130f8565b604082019050919050565b6000602082019050818103600083015261318381613147565b9050919050565b7f4552433732313a20617070726f76652063616c6c6572206973206e6f7420746f60008201527f6b656e206f776e6572206f7220617070726f76656420666f7220616c6c000000602082015250565b60006131e6603d836128b8565b91506131f18261318a565b604082019050919050565b60006020820190508181036000830152613215816131d9565b9050919050565b7f4552433732313a2063616c6c6572206973206e6f7420746f6b656e206f776e6560008201527f72206f7220617070726f76656400000000000000000000000000000000000000602082015250565b6000613278602d836128b8565b91506132838261321c565b604082019050919050565b600060208201905081810360008301526132a78161326b565b9050919050565b7f506c656173652073656e64207468652061736b696e6720707269636520696e2060008201527f6f7264657220746f20636f6d706c657465207468652070757263686173650000602082015250565b600061330a603e836128b8565b9150613315826132ae565b604082019050919050565b60006020820190508181036000830152613339816132fd565b9050919050565b60008190508160005260206000209050919050565b60006020601f8301049050919050565b600082821b905092915050565b6000600883026133a27fffffffffffffffffffffffffffffffffffffffffffffffffffffffffffffffff82613365565b6133ac8683613365565b95508019841693508086168417925050509392505050565b6000819050919050565b60006133e96133e46133df8461295f565b6133c4565b61295f565b9050919050565b6000819050919050565b613403836133ce565b61341761340f826133f0565b848454613372565b825550505050565b600090565b61342c61341f565b6134378184846133fa565b505050565b5b8181101561345b57613450600082613424565b60018101905061343d565b5050565b601f8211156134a05761347181613340565b61347a84613355565b81016020851015613489578190505b61349d61349585613355565b83018261343c565b50505b505050565b600082821c905092915050565b60006134c3600019846008026134a5565b1980831691505092915050565b60006134dc83836134b2565b9150826002028217905092915050565b6134f5826128ad565b67ffffffffffffffff81111561350e5761350d612cd4565b5b61351882546130c7565b61352382828561345f565b600060209050601f8311600181146135565760008415613544578287015190505b61354e85826134d0565b8655506135b6565b601f19841661356486613340565b60005b8281101561358c57848901518255600182019150602085019450602081019050613567565b868310156135a957848901516135a5601f8916826134b2565b8355505b6001600288020188555050505b505050505050565b7f4e487b7100000000000000000000000000000000000000000000000000000000600052601160045260246000fd5b60006135f88261295f565b91506136038361295f565b925082820190508082111561361b5761361a6135be565b5b92915050565b600061362c8261295f565b91506136378361295f565b92508282026136458161295f565b9150828204841483151761365c5761365b6135be565b5b5092915050565b7f4e487b7100000000000000000000000000000000000000000000000000000000600052601260045260246000fd5b600061369d8261295f565b91506136a88361295f565b9250826136b8576136b7613663565b5b828204905092915050565b7f4552433732313a20696e76616c696420746f6b656e2049440000000000000000600082015250565b60006136f96018836128b8565b9150613704826136c3565b602082019050919050565b60006020820190508181036000830152613728816136ec565b9050919050565b7f4552433732313a2061646472657373207a65726f206973206e6f74206120766160008201527f6c6964206f776e65720000000000000000000000000000000000000000000000602082015250565b600061378b6029836128b8565b91506137968261372f565b604082019050919050565b600060208201905081810360008301526137ba8161377e565b9050919050565b600081905092915050565b60006137d7826128ad565b6137e181856137c1565b93506137f18185602086016128c9565b80840191505092915050565b600061380982856137cc565b915061381582846137cc565b91508190509392505050565b7f596f7520617265206e6f7420746865206f776e65720000000000000000000000600082015250565b60006138576015836128b8565b915061386282613821565b602082019050919050565b600060208201905081810360008301526138868161384a565b9050919050565b60008154905061389c816130c7565b9050919050565b60008190508160005260206000209050919050565b8181036138c657505061399e565b6138cf8261388d565b67ffffffffffffffff8111156138e8576138e7612cd4565b5b6138f282546130c7565b6138fd82828561345f565b6000601f83116001811461392c576000841561391a578287015490505b61392485826134d0565b865550613997565b601f19841661393a876138a3565b965061394586613340565b60005b8281101561396d57848901548255600182019150600185019450602081019050613948565b8683101561398a5784890154613986601f8916826134b2565b8355505b6001600288020188555050505b5050505050505b565b7f4f776e61626c653a206e6577206f776e657220697320746865207a65726f206160008201527f6464726573730000000000000000000000000000000000000000000000000000602082015250565b60006139fc6026836128b8565b9150613a07826139a0565b604082019050919050565b60006020820190508181036000830152613a2b816139ef565b9050919050565b7f4552433732313a207472616e736665722066726f6d20696e636f72726563742060008201527f6f776e6572000000000000000000000000000000000000000000000000000000602082015250565b6000613a8e6025836128b8565b9150613a9982613a32565b604082019050919050565b60006020820190508181036000830152613abd81613a81565b9050919050565b7f4552433732313a207472616e7366657220746f20746865207a65726f2061646460008201527f7265737300000000000000000000000000000000000000000000000000000000602082015250565b6000613b206024836128b8565b9150613b2b82613ac4565b604082019050919050565b60006020820190508181036000830152613b4f81613b13565b9050919050565b7f4552433732313a206d696e7420746f20746865207a65726f2061646472657373600082015250565b6000613b8c6020836128b8565b9150613b9782613b56565b602082019050919050565b60006020820190508181036000830152613bbb81613b7f565b9050919050565b7f4552433732313a20746f6b656e20616c7265616479206d696e74656400000000600082015250565b6000613bf8601c836128b8565b9150613c0382613bc2565b602082019050919050565b60006020820190508181036000830152613c2781613beb565b9050919050565b7f45524337323155524953746f726167653a2055524920736574206f66206e6f6e60008201527f6578697374656e7420746f6b656e000000000000000000000000000000000000602082015250565b6000613c8a602e836128b8565b9150613c9582613c2e565b604082019050919050565b60006020820190508181036000830152613cb981613c7d565b9050919050565b7f4f776e61626c653a2063616c6c6572206973206e6f7420746865206f776e6572600082015250565b6000613cf66020836128b8565b9150613d0182613cc0565b602082019050919050565b60006020820190508181036000830152613d2581613ce9565b9050919050565b7f4552433732313a20617070726f766520746f2063616c6c657200000000000000600082015250565b6000613d626019836128b8565b9150613d6d82613d2c565b602082019050919050565b60006020820190508181036000830152613d9181613d55565b9050919050565b7f4552433732313a207472616e7366657220746f206e6f6e20455243373231526560008201527f63656976657220696d706c656d656e7465720000000000000000000000000000602082015250565b6000613df46032836128b8565b9150613dff82613d98565b604082019050919050565b60006020820190508181036000830152613e2381613de7565b9050919050565b6000613e358261295f565b9150613e408361295f565b9250828203905081811115613e5857613e576135be565b5b92915050565b600081519050919050565b600082825260208201905092915050565b6000613e8582613e5e565b613e8f8185613e69565b9350613e9f8185602086016128c9565b613ea8816128f3565b840191505092915050565b6000608082019050613ec860008301876129f4565b613ed560208301866129f4565b613ee26040830185612a8a565b8181036060830152613ef48184613e7a565b905095945050505050565b600081519050613f0e8161281e565b92915050565b600060208284031215613f2a57613f296127e8565b5b6000613f3884828501613eff565b9150509291505056fea2646970667358221220c752498dd2fedcca2695a35c54dc35d97e5ed6749bd6f980405f3d09cd749d0b64736f6c63430008110033",
  "linkReferences": {},
  "deployedLinkReferences": {}
}